{
  "contractName": "AceNFT",
  "abi": [
    {
      "inputs": [],
      "stateMutability": "nonpayable",
      "type": "constructor"
    },
    {
      "anonymous": false,
      "inputs": [
        {
          "indexed": true,
          "internalType": "address",
          "name": "owner",
          "type": "address"
        },
        {
          "indexed": true,
          "internalType": "address",
          "name": "approved",
          "type": "address"
        },
        {
          "indexed": true,
          "internalType": "uint256",
          "name": "tokenId",
          "type": "uint256"
        }
      ],
      "name": "Approval",
      "type": "event"
    },
    {
      "anonymous": false,
      "inputs": [
        {
          "indexed": true,
          "internalType": "address",
          "name": "owner",
          "type": "address"
        },
        {
          "indexed": true,
          "internalType": "address",
          "name": "operator",
          "type": "address"
        },
        {
          "indexed": false,
          "internalType": "bool",
          "name": "approved",
          "type": "bool"
        }
      ],
      "name": "ApprovalForAll",
      "type": "event"
    },
    {
      "anonymous": false,
      "inputs": [
        {
          "indexed": true,
          "internalType": "address",
          "name": "from",
          "type": "address"
        },
        {
          "indexed": true,
          "internalType": "address",
          "name": "to",
          "type": "address"
        },
        {
          "indexed": true,
          "internalType": "uint256",
          "name": "tokenId",
          "type": "uint256"
        }
      ],
      "name": "Transfer",
      "type": "event"
    },
    {
      "inputs": [
        {
          "internalType": "address",
          "name": "to",
          "type": "address"
        },
        {
          "internalType": "uint256",
          "name": "tokenId",
          "type": "uint256"
        }
      ],
      "name": "approve",
      "outputs": [],
      "stateMutability": "nonpayable",
      "type": "function"
    },
    {
      "inputs": [
        {
          "internalType": "address",
          "name": "owner",
          "type": "address"
        }
      ],
      "name": "balanceOf",
      "outputs": [
        {
          "internalType": "uint256",
          "name": "",
          "type": "uint256"
        }
      ],
      "stateMutability": "view",
      "type": "function",
      "constant": true
    },
    {
      "inputs": [
        {
          "internalType": "uint256",
          "name": "tokenId",
          "type": "uint256"
        }
      ],
      "name": "getApproved",
      "outputs": [
        {
          "internalType": "address",
          "name": "",
          "type": "address"
        }
      ],
      "stateMutability": "view",
      "type": "function",
      "constant": true
    },
    {
      "inputs": [
        {
          "internalType": "address",
          "name": "owner",
          "type": "address"
        },
        {
          "internalType": "address",
          "name": "operator",
          "type": "address"
        }
      ],
      "name": "isApprovedForAll",
      "outputs": [
        {
          "internalType": "bool",
          "name": "",
          "type": "bool"
        }
      ],
      "stateMutability": "view",
      "type": "function",
      "constant": true
    },
    {
      "inputs": [],
      "name": "name",
      "outputs": [
        {
          "internalType": "string",
          "name": "",
          "type": "string"
        }
      ],
      "stateMutability": "view",
      "type": "function",
      "constant": true
    },
    {
      "inputs": [
        {
          "internalType": "uint256",
          "name": "tokenId",
          "type": "uint256"
        }
      ],
      "name": "ownerOf",
      "outputs": [
        {
          "internalType": "address",
          "name": "",
          "type": "address"
        }
      ],
      "stateMutability": "view",
      "type": "function",
      "constant": true
    },
    {
      "inputs": [
        {
          "internalType": "address",
          "name": "from",
          "type": "address"
        },
        {
          "internalType": "address",
          "name": "to",
          "type": "address"
        },
        {
          "internalType": "uint256",
          "name": "tokenId",
          "type": "uint256"
        }
      ],
      "name": "safeTransferFrom",
      "outputs": [],
      "stateMutability": "nonpayable",
      "type": "function"
    },
    {
      "inputs": [
        {
          "internalType": "address",
          "name": "from",
          "type": "address"
        },
        {
          "internalType": "address",
          "name": "to",
          "type": "address"
        },
        {
          "internalType": "uint256",
          "name": "tokenId",
          "type": "uint256"
        },
        {
          "internalType": "bytes",
          "name": "_data",
          "type": "bytes"
        }
      ],
      "name": "safeTransferFrom",
      "outputs": [],
      "stateMutability": "nonpayable",
      "type": "function"
    },
    {
      "inputs": [
        {
          "internalType": "address",
          "name": "operator",
          "type": "address"
        },
        {
          "internalType": "bool",
          "name": "approved",
          "type": "bool"
        }
      ],
      "name": "setApprovalForAll",
      "outputs": [],
      "stateMutability": "nonpayable",
      "type": "function"
    },
    {
      "inputs": [],
      "name": "symbol",
      "outputs": [
        {
          "internalType": "string",
          "name": "",
          "type": "string"
        }
      ],
      "stateMutability": "view",
      "type": "function",
      "constant": true
    },
    {
      "inputs": [
        {
          "internalType": "uint256",
          "name": "index",
          "type": "uint256"
        }
      ],
      "name": "tokenByIndex",
      "outputs": [
        {
          "internalType": "uint256",
          "name": "",
          "type": "uint256"
        }
      ],
      "stateMutability": "view",
      "type": "function",
      "constant": true
    },
    {
      "inputs": [
        {
          "internalType": "address",
          "name": "owner",
          "type": "address"
        },
        {
          "internalType": "uint256",
          "name": "index",
          "type": "uint256"
        }
      ],
      "name": "tokenOfOwnerByIndex",
      "outputs": [
        {
          "internalType": "uint256",
          "name": "",
          "type": "uint256"
        }
      ],
      "stateMutability": "view",
      "type": "function",
      "constant": true
    },
    {
      "inputs": [],
      "name": "totalSupply",
      "outputs": [
        {
          "internalType": "uint256",
          "name": "",
          "type": "uint256"
        }
      ],
      "stateMutability": "view",
      "type": "function",
      "constant": true
    },
    {
      "inputs": [
        {
          "internalType": "address",
          "name": "from",
          "type": "address"
        },
        {
          "internalType": "address",
          "name": "to",
          "type": "address"
        },
        {
          "internalType": "uint256",
          "name": "tokenId",
          "type": "uint256"
        }
      ],
      "name": "transferFrom",
      "outputs": [],
      "stateMutability": "nonpayable",
      "type": "function"
    },
    {
      "inputs": [
        {
          "internalType": "address",
          "name": "_to",
          "type": "address"
        },
        {
          "internalType": "uint256",
          "name": "_id",
          "type": "uint256"
        },
        {
          "internalType": "string",
          "name": "_url",
          "type": "string"
        }
      ],
      "name": "giveToken",
      "outputs": [
        {
          "internalType": "string",
          "name": "",
          "type": "string"
        }
      ],
      "stateMutability": "nonpayable",
      "type": "function"
    },
    {
      "inputs": [
        {
          "internalType": "uint256",
          "name": "tokenId",
          "type": "uint256"
        }
      ],
      "name": "tokenURI",
      "outputs": [
        {
          "internalType": "string",
          "name": "tokenUri",
          "type": "string"
        }
      ],
      "stateMutability": "view",
      "type": "function",
      "constant": true
    },
    {
      "inputs": [
        {
          "internalType": "bytes4",
          "name": "interfaceId",
          "type": "bytes4"
        }
      ],
      "name": "supportsInterface",
      "outputs": [
        {
          "internalType": "bool",
          "name": "",
          "type": "bool"
        }
      ],
      "stateMutability": "view",
      "type": "function",
      "constant": true
    }
  ],
  "bytecode": "0x60806040523480156200001157600080fd5b506040518060400160405280600c81526020017f436f64792773204e4654277300000000000000000000000000000000000000008152506040518060400160405280600381526020017f4143450000000000000000000000000000000000000000000000000000000000815250816000908051906020019062000096929190620000b8565b508060019080519060200190620000af929190620000b8565b505050620001cd565b828054620000c69062000168565b90600052602060002090601f016020900481019282620000ea576000855562000136565b82601f106200010557805160ff191683800117855562000136565b8280016001018555821562000136579182015b828111156200013557825182559160200191906001019062000118565b5b50905062000145919062000149565b5090565b5b80821115620001645760008160009055506001016200014a565b5090565b600060028204905060018216806200018157607f821691505b602082108114156200019857620001976200019e565b5b50919050565b7f4e487b7100000000000000000000000000000000000000000000000000000000600052602260045260246000fd5b6133b480620001dd6000396000f3fe608060405234801561001057600080fd5b506004361061010b5760003560e01c80634f6ccce7116100a257806395d89b411161007157806395d89b41146102f0578063a22cb4651461030e578063b88d4fde1461032a578063c87b56dd14610346578063e985e9c5146103765761010b565b80634f6ccce7146102305780636352211e1461026057806370a08231146102905780637d661e3c146102c05761010b565b806318160ddd116100de57806318160ddd146101aa57806323b872dd146101c85780632f745c59146101e457806342842e0e146102145761010b565b806301ffc9a71461011057806306fdde0314610140578063081812fc1461015e578063095ea7b31461018e575b600080fd5b61012a6004803603810190610125919061231b565b6103a6565b6040516101379190612767565b60405180910390f35b6101486103b8565b6040516101559190612782565b60405180910390f35b6101786004803603810190610173919061236d565b61044a565b6040516101859190612700565b60405180910390f35b6101a860048036038101906101a39190612278565b6104cf565b005b6101b26105e7565b6040516101bf91906129e4565b60405180910390f35b6101e260048036038101906101dd9190612172565b6105f4565b005b6101fe60048036038101906101f99190612278565b610654565b60405161020b91906129e4565b60405180910390f35b61022e60048036038101906102299190612172565b6106f9565b005b61024a6004803603810190610245919061236d565b610719565b60405161025791906129e4565b60405180910390f35b61027a6004803603810190610275919061236d565b6107b0565b6040516102879190612700565b60405180910390f35b6102aa60048036038101906102a5919061210d565b610862565b6040516102b791906129e4565b60405180910390f35b6102da60048036038101906102d591906122b4565b61091a565b6040516102e79190612782565b60405180910390f35b6102f861093a565b6040516103059190612782565b60405180910390f35b6103286004803603810190610323919061223c565b6109cc565b005b610344600480360381019061033f91906121c1565b610b4d565b005b610360600480360381019061035b919061236d565b610baf565b60405161036d9190612782565b60405180910390f35b610390600480360381019061038b9190612136565b610bc1565b60405161039d9190612767565b60405180910390f35b60006103b182610c55565b9050919050565b6060600080546103c790612c3a565b80601f01602080910402602001604051908101604052809291908181526020018280546103f390612c3a565b80156104405780601f1061041557610100808354040283529160200191610440565b820191906000526020600020905b81548152906001019060200180831161042357829003601f168201915b5050505050905090565b600061045582610ccf565b610494576040517f08c379a000000000000000000000000000000000000000000000000000000000815260040161048b90612924565b60405180910390fd5b6004600083815260200190815260200160002060009054906101000a900473ffffffffffffffffffffffffffffffffffffffff169050919050565b60006104da826107b0565b90508073ffffffffffffffffffffffffffffffffffffffff168373ffffffffffffffffffffffffffffffffffffffff16141561054b576040517f08c379a000000000000000000000000000000000000000000000000000000000815260040161054290612984565b60405180910390fd5b8073ffffffffffffffffffffffffffffffffffffffff1661056a610d3b565b73ffffffffffffffffffffffffffffffffffffffff161480610599575061059881610593610d3b565b610bc1565b5b6105d8576040517f08c379a00000000000000000000000000000000000000000000000000000000081526004016105cf90612864565b60405180910390fd5b6105e28383610d43565b505050565b6000600880549050905090565b6106056105ff610d3b565b82610dfc565b610644576040517f08c379a000000000000000000000000000000000000000000000000000000000815260040161063b906129a4565b60405180910390fd5b61064f838383610eda565b505050565b600061065f83610862565b82106106a0576040517f08c379a0000000000000000000000000000000000000000000000000000000008152600401610697906127a4565b60405180910390fd5b600660008473ffffffffffffffffffffffffffffffffffffffff1673ffffffffffffffffffffffffffffffffffffffff168152602001908152602001600020600083815260200190815260200160002054905092915050565b61071483838360405180602001604052806000815250610b4d565b505050565b60006107236105e7565b8210610764576040517f08c379a000000000000000000000000000000000000000000000000000000000815260040161075b906129c4565b60405180910390fd5b6008828154811061079e577f4e487b7100000000000000000000000000000000000000000000000000000000600052603260045260246000fd5b90600052602060002001549050919050565b6000806002600084815260200190815260200160002060009054906101000a900473ffffffffffffffffffffffffffffffffffffffff169050600073ffffffffffffffffffffffffffffffffffffffff168173ffffffffffffffffffffffffffffffffffffffff161415610859576040517f08c379a0000000000000000000000000000000000000000000000000000000008152600401610850906128a4565b60405180910390fd5b80915050919050565b60008073ffffffffffffffffffffffffffffffffffffffff168273ffffffffffffffffffffffffffffffffffffffff1614156108d3576040517f08c379a00000000000000000000000000000000000000000000000000000000081526004016108ca90612884565b60405180910390fd5b600360008373ffffffffffffffffffffffffffffffffffffffff1673ffffffffffffffffffffffffffffffffffffffff168152602001908152602001600020549050919050565b60606109268484611136565b6109308383611304565b8190509392505050565b60606001805461094990612c3a565b80601f016020809104026020016040519081016040528092919081815260200182805461097590612c3a565b80156109c25780601f10610997576101008083540402835291602001916109c2565b820191906000526020600020905b8154815290600101906020018083116109a557829003601f168201915b5050505050905090565b6109d4610d3b565b73ffffffffffffffffffffffffffffffffffffffff168273ffffffffffffffffffffffffffffffffffffffff161415610a42576040517f08c379a0000000000000000000000000000000000000000000000000000000008152600401610a3990612824565b60405180910390fd5b8060056000610a4f610d3b565b73ffffffffffffffffffffffffffffffffffffffff1673ffffffffffffffffffffffffffffffffffffffff16815260200190815260200160002060008473ffffffffffffffffffffffffffffffffffffffff1673ffffffffffffffffffffffffffffffffffffffff16815260200190815260200160002060006101000a81548160ff0219169083151502179055508173ffffffffffffffffffffffffffffffffffffffff16610afc610d3b565b73ffffffffffffffffffffffffffffffffffffffff167f17307eab39ab6107e8899845ad3d59bd9653f200f220920489ca2b5937696c3183604051610b419190612767565b60405180910390a35050565b610b5e610b58610d3b565b83610dfc565b610b9d576040517f08c379a0000000000000000000000000000000000000000000000000000000008152600401610b94906129a4565b60405180910390fd5b610ba984848484611378565b50505050565b6060610bba826113d4565b9050919050565b6000600560008473ffffffffffffffffffffffffffffffffffffffff1673ffffffffffffffffffffffffffffffffffffffff16815260200190815260200160002060008373ffffffffffffffffffffffffffffffffffffffff1673ffffffffffffffffffffffffffffffffffffffff16815260200190815260200160002060009054906101000a900460ff16905092915050565b60007f780e9d63000000000000000000000000000000000000000000000000000000007bffffffffffffffffffffffffffffffffffffffffffffffffffffffff1916827bffffffffffffffffffffffffffffffffffffffffffffffffffffffff19161480610cc85750610cc782611526565b5b9050919050565b60008073ffffffffffffffffffffffffffffffffffffffff166002600084815260200190815260200160002060009054906101000a900473ffffffffffffffffffffffffffffffffffffffff1673ffffffffffffffffffffffffffffffffffffffff1614159050919050565b600033905090565b816004600083815260200190815260200160002060006101000a81548173ffffffffffffffffffffffffffffffffffffffff021916908373ffffffffffffffffffffffffffffffffffffffff160217905550808273ffffffffffffffffffffffffffffffffffffffff16610db6836107b0565b73ffffffffffffffffffffffffffffffffffffffff167f8c5be1e5ebec7d5bd14f71427d1e84f3dd0314c0f7b2291e5b200ac8c7c3b92560405160405180910390a45050565b6000610e0782610ccf565b610e46576040517f08c379a0000000000000000000000000000000000000000000000000000000008152600401610e3d90612844565b60405180910390fd5b6000610e51836107b0565b90508073ffffffffffffffffffffffffffffffffffffffff168473ffffffffffffffffffffffffffffffffffffffff161480610ec057508373ffffffffffffffffffffffffffffffffffffffff16610ea88461044a565b73ffffffffffffffffffffffffffffffffffffffff16145b80610ed15750610ed08185610bc1565b5b91505092915050565b8273ffffffffffffffffffffffffffffffffffffffff16610efa826107b0565b73ffffffffffffffffffffffffffffffffffffffff1614610f50576040517f08c379a0000000000000000000000000000000000000000000000000000000008152600401610f4790612944565b60405180910390fd5b600073ffffffffffffffffffffffffffffffffffffffff168273ffffffffffffffffffffffffffffffffffffffff161415610fc0576040517f08c379a0000000000000000000000000000000000000000000000000000000008152600401610fb790612804565b60405180910390fd5b610fcb838383611608565b610fd6600082610d43565b6001600360008573ffffffffffffffffffffffffffffffffffffffff1673ffffffffffffffffffffffffffffffffffffffff16815260200190815260200160002060008282546110269190612b50565b925050819055506001600360008473ffffffffffffffffffffffffffffffffffffffff1673ffffffffffffffffffffffffffffffffffffffff168152602001908152602001600020600082825461107d9190612ac9565b92505081905550816002600083815260200190815260200160002060006101000a81548173ffffffffffffffffffffffffffffffffffffffff021916908373ffffffffffffffffffffffffffffffffffffffff160217905550808273ffffffffffffffffffffffffffffffffffffffff168473ffffffffffffffffffffffffffffffffffffffff167fddf252ad1be2c89b69c2b068fc378daa952ba7f163c4a11628f55a4df523b3ef60405160405180910390a4505050565b600073ffffffffffffffffffffffffffffffffffffffff168273ffffffffffffffffffffffffffffffffffffffff1614156111a6576040517f08c379a000000000000000000000000000000000000000000000000000000000815260040161119d906128e4565b60405180910390fd5b6111af81610ccf565b156111ef576040517f08c379a00000000000000000000000000000000000000000000000000000000081526004016111e6906127e4565b60405180910390fd5b6111fb60008383611608565b6001600360008473ffffffffffffffffffffffffffffffffffffffff1673ffffffffffffffffffffffffffffffffffffffff168152602001908152602001600020600082825461124b9190612ac9565b92505081905550816002600083815260200190815260200160002060006101000a81548173ffffffffffffffffffffffffffffffffffffffff021916908373ffffffffffffffffffffffffffffffffffffffff160217905550808273ffffffffffffffffffffffffffffffffffffffff16600073ffffffffffffffffffffffffffffffffffffffff167fddf252ad1be2c89b69c2b068fc378daa952ba7f163c4a11628f55a4df523b3ef60405160405180910390a45050565b61130d82610ccf565b61134c576040517f08c379a0000000000000000000000000000000000000000000000000000000008152600401611343906128c4565b60405180910390fd5b80600a60008481526020019081526020016000209080519060200190611373929190611f31565b505050565b611383848484610eda565b61138f84848484611618565b6113ce576040517f08c379a00000000000000000000000000000000000000000000000000000000081526004016113c5906127c4565b60405180910390fd5b50505050565b60606113df82610ccf565b61141e576040517f08c379a000000000000000000000000000000000000000000000000000000000815260040161141590612904565b60405180910390fd5b6000600a6000848152602001908152602001600020805461143e90612c3a565b80601f016020809104026020016040519081016040528092919081815260200182805461146a90612c3a565b80156114b75780601f1061148c576101008083540402835291602001916114b7565b820191906000526020600020905b81548152906001019060200180831161149a57829003601f168201915b5050505050905060006114c86117af565b90506000815114156114de578192505050611521565b6000825111156115135780826040516020016114fb9291906126dc565b60405160208183030381529060405292505050611521565b61151c846117cf565b925050505b919050565b60007f80ac58cd000000000000000000000000000000000000000000000000000000007bffffffffffffffffffffffffffffffffffffffffffffffffffffffff1916827bffffffffffffffffffffffffffffffffffffffffffffffffffffffff191614806115f157507f5b5e139f000000000000000000000000000000000000000000000000000000007bffffffffffffffffffffffffffffffffffffffffffffffffffffffff1916827bffffffffffffffffffffffffffffffffffffffffffffffffffffffff1916145b80611601575061160082611876565b5b9050919050565b6116138383836118e0565b505050565b60006116398473ffffffffffffffffffffffffffffffffffffffff166119f4565b156117a2578373ffffffffffffffffffffffffffffffffffffffff1663150b7a02611662610d3b565b8786866040518563ffffffff1660e01b8152600401611684949392919061271b565b602060405180830381600087803b15801561169e57600080fd5b505af19250505080156116cf57506040513d601f19601f820116820180604052508101906116cc9190612344565b60015b611752573d80600081146116ff576040519150601f19603f3d011682016040523d82523d6000602084013e611704565b606091505b5060008151141561174a576040517f08c379a0000000000000000000000000000000000000000000000000000000008152600401611741906127c4565b60405180910390fd5b805181602001fd5b63150b7a0260e01b7bffffffffffffffffffffffffffffffffffffffffffffffffffffffff1916817bffffffffffffffffffffffffffffffffffffffffffffffffffffffff1916149150506117a7565b600190505b949350505050565b606060405180606001604052806022815260200161335d60229139905090565b60606117da82610ccf565b611819576040517f08c379a000000000000000000000000000000000000000000000000000000000815260040161181090612964565b60405180910390fd5b60006118236117af565b90506000815111611843576040518060200160405280600081525061186e565b8061184d84611a07565b60405160200161185e9291906126dc565b6040516020818303038152906040525b915050919050565b60007f01ffc9a7000000000000000000000000000000000000000000000000000000007bffffffffffffffffffffffffffffffffffffffffffffffffffffffff1916827bffffffffffffffffffffffffffffffffffffffffffffffffffffffff1916149050919050565b6118eb838383611bb4565b600073ffffffffffffffffffffffffffffffffffffffff168373ffffffffffffffffffffffffffffffffffffffff16141561192e5761192981611bb9565b61196d565b8173ffffffffffffffffffffffffffffffffffffffff168373ffffffffffffffffffffffffffffffffffffffff161461196c5761196b8382611c02565b5b5b600073ffffffffffffffffffffffffffffffffffffffff168273ffffffffffffffffffffffffffffffffffffffff1614156119b0576119ab81611d6f565b6119ef565b8273ffffffffffffffffffffffffffffffffffffffff168273ffffffffffffffffffffffffffffffffffffffff16146119ee576119ed8282611eb2565b5b5b505050565b600080823b905060008111915050919050565b60606000821415611a4f576040518060400160405280600181526020017f30000000000000000000000000000000000000000000000000000000000000008152509050611baf565b600082905060005b60008214611a81578080611a6a90612c9d565b915050600a82611a7a9190612b1f565b9150611a57565b60008167ffffffffffffffff811115611ac3577f4e487b7100000000000000000000000000000000000000000000000000000000600052604160045260246000fd5b6040519080825280601f01601f191660200182016040528015611af55781602001600182028036833780820191505090505b5090505b60008514611ba857600182611b0e9190612b50565b9150600a85611b1d9190612ce6565b6030611b299190612ac9565b60f81b818381518110611b65577f4e487b7100000000000000000000000000000000000000000000000000000000600052603260045260246000fd5b60200101907effffffffffffffffffffffffffffffffffffffffffffffffffffffffffffff1916908160001a905350600a85611ba19190612b1f565b9450611af9565b8093505050505b919050565b505050565b6008805490506009600083815260200190815260200160002081905550600881908060018154018082558091505060019003906000526020600020016000909190919091505550565b60006001611c0f84610862565b611c199190612b50565b9050600060076000848152602001908152602001600020549050818114611cfe576000600660008673ffffffffffffffffffffffffffffffffffffffff1673ffffffffffffffffffffffffffffffffffffffff168152602001908152602001600020600084815260200190815260200160002054905080600660008773ffffffffffffffffffffffffffffffffffffffff1673ffffffffffffffffffffffffffffffffffffffff168152602001908152602001600020600084815260200190815260200160002081905550816007600083815260200190815260200160002081905550505b6007600084815260200190815260200160002060009055600660008573ffffffffffffffffffffffffffffffffffffffff1673ffffffffffffffffffffffffffffffffffffffff16815260200190815260200160002060008381526020019081526020016000206000905550505050565b60006001600880549050611d839190612b50565b9050600060096000848152602001908152602001600020549050600060088381548110611dd9577f4e487b7100000000000000000000000000000000000000000000000000000000600052603260045260246000fd5b906000526020600020015490508060088381548110611e21577f4e487b7100000000000000000000000000000000000000000000000000000000600052603260045260246000fd5b906000526020600020018190555081600960008381526020019081526020016000208190555060096000858152602001908152602001600020600090556008805480611e96577f4e487b7100000000000000000000000000000000000000000000000000000000600052603160045260246000fd5b6001900381819060005260206000200160009055905550505050565b6000611ebd83610862565b905081600660008573ffffffffffffffffffffffffffffffffffffffff1673ffffffffffffffffffffffffffffffffffffffff168152602001908152602001600020600083815260200190815260200160002081905550806007600084815260200190815260200160002081905550505050565b828054611f3d90612c3a565b90600052602060002090601f016020900481019282611f5f5760008555611fa6565b82601f10611f7857805160ff1916838001178555611fa6565b82800160010185558215611fa6579182015b82811115611fa5578251825591602001919060010190611f8a565b5b509050611fb39190611fb7565b5090565b5b80821115611fd0576000816000905550600101611fb8565b5090565b6000611fe7611fe284612a24565b6129ff565b905082815260208101848484011115611fff57600080fd5b61200a848285612bf8565b509392505050565b600061202561202084612a55565b6129ff565b90508281526020810184848401111561203d57600080fd5b612048848285612bf8565b509392505050565b60008135905061205f81613300565b92915050565b60008135905061207481613317565b92915050565b6000813590506120898161332e565b92915050565b60008151905061209e8161332e565b92915050565b600082601f8301126120b557600080fd5b81356120c5848260208601611fd4565b91505092915050565b600082601f8301126120df57600080fd5b81356120ef848260208601612012565b91505092915050565b60008135905061210781613345565b92915050565b60006020828403121561211f57600080fd5b600061212d84828501612050565b91505092915050565b6000806040838503121561214957600080fd5b600061215785828601612050565b925050602061216885828601612050565b9150509250929050565b60008060006060848603121561218757600080fd5b600061219586828701612050565b93505060206121a686828701612050565b92505060406121b7868287016120f8565b9150509250925092565b600080600080608085870312156121d757600080fd5b60006121e587828801612050565b94505060206121f687828801612050565b9350506040612207878288016120f8565b925050606085013567ffffffffffffffff81111561222457600080fd5b612230878288016120a4565b91505092959194509250565b6000806040838503121561224f57600080fd5b600061225d85828601612050565b925050602061226e85828601612065565b9150509250929050565b6000806040838503121561228b57600080fd5b600061229985828601612050565b92505060206122aa858286016120f8565b9150509250929050565b6000806000606084860312156122c957600080fd5b60006122d786828701612050565b93505060206122e8868287016120f8565b925050604084013567ffffffffffffffff81111561230557600080fd5b612311868287016120ce565b9150509250925092565b60006020828403121561232d57600080fd5b600061233b8482850161207a565b91505092915050565b60006020828403121561235657600080fd5b60006123648482850161208f565b91505092915050565b60006020828403121561237f57600080fd5b600061238d848285016120f8565b91505092915050565b61239f81612b84565b82525050565b6123ae81612b96565b82525050565b60006123bf82612a86565b6123c98185612a9c565b93506123d9818560208601612c07565b6123e281612dd3565b840191505092915050565b60006123f882612a91565b6124028185612aad565b9350612412818560208601612c07565b61241b81612dd3565b840191505092915050565b600061243182612a91565b61243b8185612abe565b935061244b818560208601612c07565b80840191505092915050565b6000612464602b83612aad565b915061246f82612de4565b604082019050919050565b6000612487603283612aad565b915061249282612e33565b604082019050919050565b60006124aa601c83612aad565b91506124b582612e82565b602082019050919050565b60006124cd602483612aad565b91506124d882612eab565b604082019050919050565b60006124f0601983612aad565b91506124fb82612efa565b602082019050919050565b6000612513602c83612aad565b915061251e82612f23565b604082019050919050565b6000612536603883612aad565b915061254182612f72565b604082019050919050565b6000612559602a83612aad565b915061256482612fc1565b604082019050919050565b600061257c602983612aad565b915061258782613010565b604082019050919050565b600061259f602e83612aad565b91506125aa8261305f565b604082019050919050565b60006125c2602083612aad565b91506125cd826130ae565b602082019050919050565b60006125e5603183612aad565b91506125f0826130d7565b604082019050919050565b6000612608602c83612aad565b915061261382613126565b604082019050919050565b600061262b602983612aad565b915061263682613175565b604082019050919050565b600061264e602f83612aad565b9150612659826131c4565b604082019050919050565b6000612671602183612aad565b915061267c82613213565b604082019050919050565b6000612694603183612aad565b915061269f82613262565b604082019050919050565b60006126b7602c83612aad565b91506126c2826132b1565b604082019050919050565b6126d681612bee565b82525050565b60006126e88285612426565b91506126f48284612426565b91508190509392505050565b60006020820190506127156000830184612396565b92915050565b60006080820190506127306000830187612396565b61273d6020830186612396565b61274a60408301856126cd565b818103606083015261275c81846123b4565b905095945050505050565b600060208201905061277c60008301846123a5565b92915050565b6000602082019050818103600083015261279c81846123ed565b905092915050565b600060208201905081810360008301526127bd81612457565b9050919050565b600060208201905081810360008301526127dd8161247a565b9050919050565b600060208201905081810360008301526127fd8161249d565b9050919050565b6000602082019050818103600083015261281d816124c0565b9050919050565b6000602082019050818103600083015261283d816124e3565b9050919050565b6000602082019050818103600083015261285d81612506565b9050919050565b6000602082019050818103600083015261287d81612529565b9050919050565b6000602082019050818103600083015261289d8161254c565b9050919050565b600060208201905081810360008301526128bd8161256f565b9050919050565b600060208201905081810360008301526128dd81612592565b9050919050565b600060208201905081810360008301526128fd816125b5565b9050919050565b6000602082019050818103600083015261291d816125d8565b9050919050565b6000602082019050818103600083015261293d816125fb565b9050919050565b6000602082019050818103600083015261295d8161261e565b9050919050565b6000602082019050818103600083015261297d81612641565b9050919050565b6000602082019050818103600083015261299d81612664565b9050919050565b600060208201905081810360008301526129bd81612687565b9050919050565b600060208201905081810360008301526129dd816126aa565b9050919050565b60006020820190506129f960008301846126cd565b92915050565b6000612a09612a1a565b9050612a158282612c6c565b919050565b6000604051905090565b600067ffffffffffffffff821115612a3f57612a3e612da4565b5b612a4882612dd3565b9050602081019050919050565b600067ffffffffffffffff821115612a7057612a6f612da4565b5b612a7982612dd3565b9050602081019050919050565b600081519050919050565b600081519050919050565b600082825260208201905092915050565b600082825260208201905092915050565b600081905092915050565b6000612ad482612bee565b9150612adf83612bee565b9250827fffffffffffffffffffffffffffffffffffffffffffffffffffffffffffffffff03821115612b1457612b13612d17565b5b828201905092915050565b6000612b2a82612bee565b9150612b3583612bee565b925082612b4557612b44612d46565b5b828204905092915050565b6000612b5b82612bee565b9150612b6683612bee565b925082821015612b7957612b78612d17565b5b828203905092915050565b6000612b8f82612bce565b9050919050565b60008115159050919050565b60007fffffffff0000000000000000000000000000000000000000000000000000000082169050919050565b600073ffffffffffffffffffffffffffffffffffffffff82169050919050565b6000819050919050565b82818337600083830152505050565b60005b83811015612c25578082015181840152602081019050612c0a565b83811115612c34576000848401525b50505050565b60006002820490506001821680612c5257607f821691505b60208210811415612c6657612c65612d75565b5b50919050565b612c7582612dd3565b810181811067ffffffffffffffff82111715612c9457612c93612da4565b5b80604052505050565b6000612ca882612bee565b91507fffffffffffffffffffffffffffffffffffffffffffffffffffffffffffffffff821415612cdb57612cda612d17565b5b600182019050919050565b6000612cf182612bee565b9150612cfc83612bee565b925082612d0c57612d0b612d46565b5b828206905092915050565b7f4e487b7100000000000000000000000000000000000000000000000000000000600052601160045260246000fd5b7f4e487b7100000000000000000000000000000000000000000000000000000000600052601260045260246000fd5b7f4e487b7100000000000000000000000000000000000000000000000000000000600052602260045260246000fd5b7f4e487b7100000000000000000000000000000000000000000000000000000000600052604160045260246000fd5b6000601f19601f8301169050919050565b7f455243373231456e756d657261626c653a206f776e657220696e646578206f7560008201527f74206f6620626f756e6473000000000000000000000000000000000000000000602082015250565b7f4552433732313a207472616e7366657220746f206e6f6e20455243373231526560008201527f63656976657220696d706c656d656e7465720000000000000000000000000000602082015250565b7f4552433732313a20746f6b656e20616c7265616479206d696e74656400000000600082015250565b7f4552433732313a207472616e7366657220746f20746865207a65726f2061646460008201527f7265737300000000000000000000000000000000000000000000000000000000602082015250565b7f4552433732313a20617070726f766520746f2063616c6c657200000000000000600082015250565b7f4552433732313a206f70657261746f7220717565727920666f72206e6f6e657860008201527f697374656e7420746f6b656e0000000000000000000000000000000000000000602082015250565b7f4552433732313a20617070726f76652063616c6c6572206973206e6f74206f7760008201527f6e6572206e6f7220617070726f76656420666f7220616c6c0000000000000000602082015250565b7f4552433732313a2062616c616e636520717565727920666f7220746865207a6560008201527f726f206164647265737300000000000000000000000000000000000000000000602082015250565b7f4552433732313a206f776e657220717565727920666f72206e6f6e657869737460008201527f656e7420746f6b656e0000000000000000000000000000000000000000000000602082015250565b7f45524337323155524953746f726167653a2055524920736574206f66206e6f6e60008201527f6578697374656e7420746f6b656e000000000000000000000000000000000000602082015250565b7f4552433732313a206d696e7420746f20746865207a65726f2061646472657373600082015250565b7f45524337323155524953746f726167653a2055524920717565727920666f722060008201527f6e6f6e6578697374656e7420746f6b656e000000000000000000000000000000602082015250565b7f4552433732313a20617070726f76656420717565727920666f72206e6f6e657860008201527f697374656e7420746f6b656e0000000000000000000000000000000000000000602082015250565b7f4552433732313a207472616e73666572206f6620746f6b656e2074686174206960008201527f73206e6f74206f776e0000000000000000000000000000000000000000000000602082015250565b7f4552433732314d657461646174613a2055524920717565727920666f72206e6f60008201527f6e6578697374656e7420746f6b656e0000000000000000000000000000000000602082015250565b7f4552433732313a20617070726f76616c20746f2063757272656e74206f776e6560008201527f7200000000000000000000000000000000000000000000000000000000000000602082015250565b7f4552433732313a207472616e736665722063616c6c6572206973206e6f74206f60008201527f776e6572206e6f7220617070726f766564000000000000000000000000000000602082015250565b7f455243373231456e756d657261626c653a20676c6f62616c20696e646578206f60008201527f7574206f6620626f756e64730000000000000000000000000000000000000000602082015250565b61330981612b84565b811461331457600080fd5b50565b61332081612b96565b811461332b57600080fd5b50565b61333781612ba2565b811461334257600080fd5b50565b61334e81612bee565b811461335957600080fd5b5056fe68747470733a2f2f676174657761792e70696e6174612e636c6f75642f697066732fa2646970667358221220dcfe0f49776c90ba1397b692c05e9fc91eb735f4ea606412678dd47da2599f5064736f6c63430008030033",
  "immutableReferences": {},
  "source": "pragma solidity ^0.8.3;\r\n\r\n// \"SPDX-License-Identifier: UNLICENSED\"\r\n\r\nimport \"../node_modules/@openzeppelin/contracts/token/ERC721/extensions/ERC721Enumerable.sol\";\r\nimport \"../node_modules/@openzeppelin/contracts/token/ERC721/extensions/ERC721URIStorage.sol\";\r\nimport \"../node_modules/@openzeppelin/contracts/utils/Context.sol\";\r\n\r\n\r\ncontract AceNFT is Context, ERC721Enumerable, ERC721URIStorage {\r\n\r\n    constructor() ERC721(\"Cody's NFT's\", \"ACE\") { }\r\n    \r\n    function _baseURI() internal pure override returns (string memory) {\r\n        return \"https://gateway.pinata.cloud/ipfs/\";\r\n    }\r\n\r\n    function giveToken(address _to, uint _id, string memory _url) public returns(string memory) {\r\n        _mint(_to, _id);\r\n        _setTokenURI(_id, _url);\r\n        return _url;\r\n    }\r\n    \r\n    function _beforeTokenTransfer(address from, address to, uint256 tokenId) internal virtual override(ERC721, ERC721Enumerable) {\r\n        super._beforeTokenTransfer(from, to, tokenId);\r\n    }\r\n\r\n    function _burn(uint tokenId) internal override(ERC721, ERC721URIStorage) {\r\n        super._burn(tokenId);\r\n    }\r\n\r\n    function tokenURI(uint tokenId) public view override(ERC721, ERC721URIStorage) returns(string memory tokenUri){\r\n        return super.tokenURI(tokenId);\r\n    }\r\n\r\n    // fallback() external payable { }\r\n\r\n    /**\r\n     * @dev See {IERC165-supportsInterface}.\r\n     */\r\n    function supportsInterface(bytes4 interfaceId) public view virtual override(ERC721, ERC721Enumerable) returns (bool) {\r\n        return super.supportsInterface(interfaceId);\r\n    }\r\n}",
  "sourcePath": "D:/MSDN Projects/AceNFTMarketplace/Solidity/contracts/AceNFT.sol",
  "compiler": {
    "name": "solc",
    "version": "0.8.3+commit.8d00100c.Emscripten.clang"
  },
  "schemaVersion": "3.3.4",
  "updatedAt": "2021-05-03T08:29:54.185Z",
  "networkType": "ethereum",
  "devdoc": {
    "kind": "dev",
    "methods": {
      "approve(address,uint256)": {
        "details": "See {IERC721-approve}."
      },
      "balanceOf(address)": {
        "details": "See {IERC721-balanceOf}."
      },
      "getApproved(uint256)": {
        "details": "See {IERC721-getApproved}."
      },
      "isApprovedForAll(address,address)": {
        "details": "See {IERC721-isApprovedForAll}."
      },
      "name()": {
        "details": "See {IERC721Metadata-name}."
      },
      "ownerOf(uint256)": {
        "details": "See {IERC721-ownerOf}."
      },
      "safeTransferFrom(address,address,uint256)": {
        "details": "See {IERC721-safeTransferFrom}."
      },
      "safeTransferFrom(address,address,uint256,bytes)": {
        "details": "See {IERC721-safeTransferFrom}."
      },
      "setApprovalForAll(address,bool)": {
        "details": "See {IERC721-setApprovalForAll}."
      },
      "supportsInterface(bytes4)": {
        "details": "See {IERC165-supportsInterface}."
      },
      "symbol()": {
        "details": "See {IERC721Metadata-symbol}."
      },
      "tokenByIndex(uint256)": {
        "details": "See {IERC721Enumerable-tokenByIndex}."
      },
      "tokenOfOwnerByIndex(address,uint256)": {
        "details": "See {IERC721Enumerable-tokenOfOwnerByIndex}."
      },
      "totalSupply()": {
        "details": "See {IERC721Enumerable-totalSupply}."
      },
      "transferFrom(address,address,uint256)": {
        "details": "See {IERC721-transferFrom}."
      }
    },
    "version": 1
  },
  "userdoc": {
    "kind": "user",
    "methods": {},
    "version": 1
  }
}